:020000020000FC
:0600000076C039C046C0C5
:1000240050C0000101010202030506090D11161D4D
:10003400242D000001010101010102020202030357
:100044000505060607090B0D0F111316191D2024AB
:10005400282D070707070404040401070305000605
:100064000204FF0FFF0FFF0F1FFF1F1F1FFFFF0FD4
:10007400FFFF4B9907C09AB857B84A99FECF77B893
:100084007AB81895E6B150A090A8DCBB1895C6B014
:100094004A9912C059B0DFB65820C5285C2C509438
:1000A40050A29080C920952C982090AAC08AED3047
:1000B40009F43068DFBE1895EC2D50A090A8FCBB65
:1000C4001895C090C600E4FF06C0C7FC02C0EC2D22
:1000D4001895E0E11895DFB65080C520C08AED3050
:1000E40009F43068E0E1DFBE189505B7046005BF88
:1000F4000FEF0DBF04E00EBF00B7076000BF772409
:1001040000EC802E0FE1202E0FEF502E982CFF24B0
:1001140020E1E0E1F1E080A2008B71922A95D9F709
:10012400B2E0A0E1E6E5F0E020E1EDD0A0E2E6E215
:10013400F0E020E1E8D0A0E3E6E3F0E020E2E3D061
:10014400AA27B1E0E6E6F0E020E1DDD0F1E0D2E07C
:100154006F2E72BC71BCF89A00B5071591F0002798
:100164000093C50006E00093C20002E00093C000C3
:1001740000E90093C10003E001BDF89A20B5209383
:10018400C400709289007092880070928B00709203
:100194008A00219A229A02EA0093800009E10093DE
:1001A400810009E100938100D1BDF89A20B57092D5
:1001B400870020938600F1BDF89A00B5071531F049
:1001C4000FE00093690003E00CBB0DBBE0E13327B3
:1001D400002444241124282D0027CC24332444272C
:1001E4005527BA01CA01DA0111277894C6B3C0FFB2
:1001F400FDCFC6BB37FF06C0C0911D0108892FE1A2
:100204003F770CC007FD12C0119708F079F42A95C6
:100214002AF42FE101FD0F2702FD0829A0911B01FB
:10022400B0911C01C22F00FFC22518A93A946AF4A8
:10023400309016013A9466946E2CF794E7943863E0
:10024400E0FE377C660C6E2466944F1B57093AF423
:1002540040911001509111014F1B57093F276F1B0B
:1002640077093AF460911201709113016F1B7709B9
:100274003D2701973AF4809114019091150101975B
:10028400C4E03C27A0901701A094A322B0901701CA
:10029400CB2DCC0FC295BC22C0911801012EC4FFF6
:1002A40008A0B0FC07C0CA2DC97009F40024C930E5
:1002B40009F4000CC0911901412EC4FF48A0B1FCFF
:1002C40007C0CA2DC27109F44424C23109F4440C94
:1002D400C0911A01112EC4FF18A0B2FC07C0CA2D88
:1002E400C47209F41124C43209F4110CC42D4694C7
:1002F4004694C4194694C4190C0E1C0E009288002E
:1003040010928A0073CF05910D932A95E1F7089511
:00000001FF
